:020000040800F2
:10000000005000208D730008256F0008296F00083C
:100010002D6F0008316F0008356F000800000000E8
:10002000000000000000000000000000C1490008BE
:10003000396F000800000000514A0008954A000886
:10004000D5730008D5730008D5730008D573000870
:10005000D5730008D5730008D5730008D573000860
:10006000D5730008D5730008D5730008D573000850
:10007000D57300083D6F0008D5730008D5730008DC
:10008000496F0008D5730008556F0008D573000844
:10009000616F0008D5730008D5730008D573000898
:1000A000D57300087D6F0008D5730008D57300086C
:1000B000896F0008D5730008D5730008956F000894
:1000C000D5730008D5730008D5730008D5730008F0
:1000D000D5730008A16F0008AD6F0008D573000844
:1000E000D5730008D5730008D57300080000000020
:1000F0000000000000000000000000000000000000
:0C01000000000000000000005FF808F1A3
:1001100010B5054C237833B9044B13B10448AFF341
:1001200000800123237010BDCC01002000000000DE
:10013000A47C000808B5034B1BB103490348AFF387
:10014000008008BD00000000D0010020A47C000851
:10015000074A08B51368032043F01003136000F04A
:100160004BFC002006F0A0FE06F084FC002008BD39
:1001700000200240034A044B11681B780B441360B3
:10018000704700BFF020002000000020014B1868DD
:10019000704700BFF02000200368D86C704700BF94
:1001A000704700BF036810B55A680446900602D530
:1001B0001A6891072AD45A68100602D51A6851079E
:1001C00006D45A68520602D51B68DB0733D410BD2B
:1001D000A26AD20603D4A26A42F40052A2629A68CA
:1001E00002F4E042B2F5E04F34D05A68500505D42D
:1001F0009A6802F46022B2F5602F28D0204600F001
:100200004BFA6FF00C0223681A60DAE7A26AD20692
:1002100003D4A26A42F40072A2629A6802F46022D5
:10022000B2F5602F26D0204606F064FA6FF0120275
:1002300023681A60BFE7A36A204643F48033A362B1
:10024000FFF7AEFF6FF0010223681A6010BDE2688D
:10025000002AD3D15A6822F080025A60A36A23F49C
:100260008053A362A36AD905C8D4A36A43F00103EB
:10027000A362C3E7E268002AD5D15A6822F02002BF
:100280005A60A36A23F48073A362A36ADB04CAD40E
:10029000A36A43F00103A362C5E700BF0246002042
:1002A00070B492F8243083B0012B019054D0012017
:1002B0004B681F26062B82F82400146824D803EB11
:1002C0008303053B656B08689E4025EA060500FA36
:1002D00003F32B436363092826D9072600EB400369
:1002E0008D681E3BE1689E409D4021EA06032B433A
:1002F000E360A0F11003012B25D90020002382F830
:10030000243003B070BC70470C2B03EB830327D859
:100310000868233B256B9E4025EA060500FA03F397
:100320002B4309282363D8D80725896800EB4006AA
:100330002369B540B14023EA05030B432361A0F1D3
:100340001003012BD9D81A4B9C4214D0936A012078
:1003500043F020039362D1E7022003B070BC7047E2
:10036000413BE56A08689E4025EA060500FA03F36A
:100370002B43E362AFE7A3681B02BED4A368102837
:1003800043F40003A360B8D10A4B0B491B68A1FBDF
:1003900003139B0C03EB83035B000193019B002B76
:1003A000ABD0019B013B0193019B002BF9D1A4E74A
:1003B000002401402001002083DE1B43002370B590
:1003C000026882B001939368DB0721D4184B194C63
:1003D0001B689168A4FB034341F001019B0C9160F1
:1003E0000193019B2BB1019B013B0193019B002BCE
:1003F000F9D10546FFF7CAFE064604E0FFF7C6FE40
:10040000801B022807D82B689C6814F00104F5D0E3
:10041000002002B070BD0120AB6A85F8244043F093
:100420001003AB62EB6A0343EB6202B070BD00BF26
:100430002001002083DE1B4390F82430012B01D1E2
:1004400002207047012310B580F824300446FFF7DE
:10045000B5FF002836D1A26A236822F470622949C8
:1004600022F0010242F480728B42A26236D0A26A6C
:1004700022F48012A2625A68510505D5A26A22F4BC
:10048000405242F48052A262A26A002112F48052C9
:1004900018BFE26A84F8241018BF22F00602E26254
:1004A0006FF002021A605A6842F020025A609A689D
:1004B00002F46022B2F5602F08D09A6842F48012EC
:1004C0009A6010BD002384F8243010BD0D4A934279
:1004D00011D09A6842F4A0029A6010BD0A4A51688D
:1004E00011F4702FC3D0A16A41F48011A162526847
:1004F0005205C9D5C2E7A2F58062526812F4702F86
:10050000DBD1E6E7002801400024014038B503684C
:100510009A68D20701D4002038BD9A68044622F0B8
:1005200001029A60FFF732FE054623689B68DB07ED
:10053000F1D5FFF72BFE401B0228F6D90120A36A54
:1005400043F01003A362E36A0343E36238BD00BFD4
:10055000002863D0F8B5836A0446002B45D02046B6
:10056000FFF7D4FFA36A13F0100338D1002836D167
:10057000A26A616822F48852E669A56822F0020244
:10058000E76842F002023143B5F5807FA26241EA9A
:10059000470130D0012D4CD06269012A4FD0064668
:1005A00022683B4B556825F46945556095682B409A
:1005B0000B439360D36A374D23F470033343D36204
:1005C00093681D40A9422BD00120A36A23F0120397
:1005D00043F01003A362E36A0343E362F8BDA36A36
:1005E000012043F01003A362F8BDC36280F82430F9
:1005F00006F068FAB3E76369012B45D02268244B03
:10060000556825F4694545F48075556095682B401B
:100610000B4393602369013B1E05CBE70120704724
:100620000023E362A36A23F0030343F00103A36200
:10063000F8BD6369012B08BF4FF48073DED1E7B1C9
:10064000A26A42F02002A262E26A42F00102E26281
:1006500022680F4E5768B5F5807F27F4694743EA53
:1006600007035360936806EA030646EA01069660AC
:10067000D0D0012DCED000269CE7A269013A43EAF2
:10068000423343F40063E3E72B46002FD8D1F4E76D
:10069000FDF7E1FFFE0E1FFF704700BF00287DD071
:1006A000F8B590F820300446002B74D02268136807
:1006B00023F002031360FFF769FD054604E0FFF72E
:1006C00065FD401B0A285DD823685A689107F6D457
:1006D0001A6842F001021A60FFF758FD054604E06F
:1006E000FFF754FD401B0A284CD823685A68D207EC
:1006F000F6D5227E0025012A1A684FF001070CBFAB
:1007000042F0800222F080021A60627E012A1A689A
:100710000CBF42F0400222F040021A60A27E012A81
:100720001A680CBF42F0200222F020021A60E27E1A
:10073000012A1A680CBF22F0100242F010021A605F
:10074000227F012A1A680CBF42F0080222F0080238
:100750001A60627F012A1A680CBF42F0040222F07C
:1007600004021A60E168A268266960690A43616848
:100770003243024301390A43DA612846656284F84C
:100780002070F8BD0522636A012043F400336362E0
:1007900084F82020F8BD06F0CBF987E701207047E8
:1007A000704700BF704700BF704700BF704700BF71
:1007B000704700BF704700BF704700BF704700BF61
:1007C000704700BF704700BF704700BF704700BF51
:1007D000704700BF2DE9F84F036806465C69D3F8FF
:1007E000048014F001059F68D3F80CB0D3F8109082
:1007F000D3F818A020D017F001050DD001229A607F
:10080000BB0700F1C7807D0700F1C88017F008051D
:1008100000F0DE804FF48055F8050BD54FF4807260
:100820003368B9059A6000F1B1807A0540F1BE8065
:1008300045F40055F80376D4270702D51BF0100FB6
:100840006BD1600703D51BF0080F40F09480A1071F
:1008500003D53368DB689A0777D1630602D519F0B0
:10086000100F54D1A70602D519F0080F66D1E00683
:1008700003D533681B6999076BD1A20302D518F021
:10088000100F6AD1E30302D518F0080F6CD12704CA
:1008900005D518F0040F0BD1336804225A602DB12E
:1008A000736A30461D437562FFF792FFBDE8F88F0B
:1008B000E00504D51AF0010F18BF45F00105A105A8
:1008C00004D51AF0020F18BF45F00205620504D5E1
:1008D0001AF0040F18BF45F004052305DCD51AF003
:1008E000700AD9D0BAF1300F7CD064D9BAF1500F68
:1008F00075D0BAF1600F78D0BAF1400F01D145F050
:10090000400533689A6922F070029A61C5E71022A7
:10091000336845F480651A61A4E71022336845F412
:100920000075DA608DE74FF480323368B9039A605E
:1009300028D47A0335D545F400457DE7082233688D
:1009400030461A61FFF73EFF91E73046FFF734FF6C
:1009500083E73046FFF734FF8FE7102233683046D5
:100960005A60FFF731FF8DE70822336830465A603E
:10097000FFF72CFF8BE7082233683046DA60FFF779
:100980001DFF64E73046FFF70FFF55E73046FFF7DE
:1009900009FF4FE7FFF704FF00253DE74FF400652F
:1009A0003AE73B0310D545F4803545E73B0512D5C2
:1009B00045F480453EE7BAF1100F19D0BAF1200F87
:1009C0009FD145F010059CE73046FFF7F3FE33E773
:1009D000FFF7ECFE20E73046FFF7EAFE2AE745F096
:1009E00080058EE745F020058BE745F4807588E7A4
:1009F00045F0080585E700BF4FF6FF01064A0002F3
:100A0000D36800F4E0600B4043F0BF6343F400336D
:100A10000343D360704700BF00ED00E0184B70B493
:100A2000DC68C4F30224C4F10706042E04F10403B5
:100A300028BF0426062B17D90125033CA540013DFC
:100A40002A400123B340013B1940A140002841EA5C
:100A500002010CDB090100F16040C9B200F5614000
:100A600080F8001370BC704700221446E9E7054B7C
:100A700000F00F000901C9B20344197670BC704739
:100A800000ED00E0FCEC00E0012300F01F01034A50
:100A900040098B4042F82030704700BF00E100E081
:100AA00050B30246F0B40024012687684368056805
:100AB0001249C0683B43124F294403431069A7FB06
:100AC0000171576903433B43976928683B43D769E2
:100AD00020F47F503B4320F030000A4F09090343C4
:100AE0008900D763204611642B60946382F820400C
:100AF00082F82160F0BC704701207047F8FFFDBF0D
:100B0000CDCCCCCC00000240F0B590F82040012CB8
:100B10000CD0012590F8214080F82050AC4208D03C
:100B20000022022380F820201846F0BD0223184638
:100B3000F0BD00264FF0020C056886632E68076C36
:100B4000D0F83CE0BC4026F00106476880F821C0A0
:100B50002E60CEF804406B60C36A102F0BBFAA60F2
:100B6000A960E960EA604BB12B6843F00E032B608B
:100B70002A68002342F001022A60D5E72B6823F09F
:100B800004032B602B6843F00A032B60F0E700BFDF
:100B900038B590F82130022B04D00422012482635E
:100BA000204638BD03681D491A688B4222F00E02A8
:100BB0001A601A6822F001021A6021D0184A934282
:100BC0001CD0143293421FD0143293421FD01432DF
:100BD00093421FD0143293420CBF4FF480134FF056
:100BE0008073012100240F4D426B6B6080F821104F
:100BF00080F8204032B19047204638BD1023F0E7FE
:100C00000123EEE71446CBE74FF48073E9E74FF496
:100C10008053E6E74FF48033E3E700BF080002406B
:100C20001C000240000002400422F0B4C66B016CBC
:100C3000346803688A4022421D681FD06F071DD5A3
:100C40001A68920603D41A6822F004021A603F4A16
:100C500093425DD01432934262D01432934269D0F1
:100C6000143293426CD0143293425BD014329342CC
:100C70000CBF4FF480034FF080634AE002228A40A9
:100C8000224222D0AF0720D51A68910606D401214E
:100C90001A6822F00A021A6080F821102B4A934247
:100CA0002CD01432934243D01432934245D01432A4
:100CB000934248D01432934237D0143293420CBF3F
:100CC0004FF400134FF0007319E008228A402242CB
:100CD0001CD02A071AD5012200271C68056B24F0B6
:100CE0000E0402FA01F11C607160826380F8212019
:100CF00080F8207055B12B46F0BC18470223002124
:100D0000134C826A636080F820103AB9F0BC7047D7
:100D100004230F49C26A4B60002AF7D0F0BC104789
:100D20004023F6E74FF48023F3E74FF40033E6E780
:100D30002023E4E74FF48063EBE74FF40073DEE732
:100D40004FF48043E5E74FF40053D8E70800024032
:100D5000000002402DE9F04F4FF0000885B04346F7
:100D60006FF01F06DFF8E0E1DFF8E0C1704F0090A0
:100D700005E00133102B06F1040600F08B80012200
:100D80000C689A401440A242F3D14D68122D00F035
:100D9000A58000F28E80022D00F0A78040F28380B3
:100DA000032D00F09F80112D02D1CA6802F10408C2
:100DB000FF2C72D8009A4FEA830A914612680F25D9
:100DC00005FA0AFB22EA0B0208FA0AFA42EA0A02C8
:100DD000C9F80020D1F804A01AF0805FC9D0DEF86D
:100DE000189023F0030249F00109CEF81890DEF8BC
:100DF000189002F1804209F00109CDF80C9002F53B
:100E0000803203F00309DDF80CB04FEA8909D2F80B
:100E100008B005FA09F52BEA050001900098604535
:100E200079D0444DA84279D0434D0098A8427AD059
:100E3000424D0098A8420CBF4FF0030B4FF0040B3B
:100E40000BFA09F901981AF4803F40EA0905956008
:100E50003A6803F1010314BF2243A2433A607A685F
:100E60001AF4003F14BF2243A2437A60BA681AF40E
:100E7000801F14BF2243A243BA60FA681AF4001F0D
:100E800014BF144322EA0404102BFC6006F104068C
:100E90007FF475AF05B0BDE8F08F0098B2464268A8
:100EA00000F104098BE7A5B1012D81D1D1F80C80A7
:100EB0007EE7234885420CD01BD92248854208D0C2
:100EC00000F58030854204D0DFF884904D457FF4F2
:100ED0006FAF8D68BDB94FF0040869E7CA6802F1C9
:100EE0000C0865E74FF0000862E7CA6802F10808DD
:100EF0005EE7DFF860904D45EBD009F580394D4550
:100F00007FF456AFE5E70098012D0CBF0261426106
:100F10004FF008084CE74FF0000993E74FF0010B42
:100F20000BFA09F98EE74FF0020B0BFA09F989E782
:100F300000040140000C0140001001400014014079
:100F40000000211000003110001002400008014094
:100F5000000022100000111002B90904016170475D
:100F6000C3685940C16070472DE9F8430746904671
:100F70009946C1F307468DB23C68012E1FD0A06987
:100F800035EA000314BF0120002000B36069430567
:100F90001FD4B8F1FF3FF0D0B8F1000F05D0FFF734
:100FA000F5F8A0EB09008045E6D2002320223B6340
:100FB00087F83C3087F83D200320BDE8F88362695C
:100FC00035EA020314BF012000200028DED1BDE86D
:100FD000F88300226FF48066042520212368012015
:100FE00043F40073236066613D6487F83C203A63F4
:100FF00087F83D10BDE8F8832DE9F041804617469B
:101000001D46C1F307468CB2D8F8001009E0886984
:1010100034EA00030CBF01200020B8420BD16B1C46
:101020000CD1012EF3D14B6934EA03030CBF01202C
:101030000020B842F3D00020BDE8F0812DB1FFF7C9
:10104000A5F8069BC01A8542DED200232022C8F8EC
:10105000303088F83C3088F83D20032088F83E3056
:10106000BDE8F081F8B504460E461746206843698E
:1010700013F0800323D145696A050CD56FF48065B0
:1010800004212022456121640120236384F83C303F
:1010900084F83D20F8BD731CE9D026B1FFF776F83F
:1010A000C01B8642E2D220210022236C84F83C201F
:1010B0000B4323640320226384F83D10F8BD002015
:1010C000F8BD00BF2DE9F047056884B02C680D9E7F
:1010D00044F48074884691469A462C600C9B009696
:1010E00000224FF001110746FFF786FF18B10320D9
:1010F00004B0BDE8F0873A6808F0FE0313611D49AB
:1011000033460C9A3846FFF72FFF20B13B6C042B77
:10111000EDD10120ECE73B68039059693246039119
:101120009B690C9903933846039BFFF79BFF88B993
:10113000BAF1010F18D039684FEA19230B61324612
:101140000C993846FFF78EFF20B93A685FFA89F3A9
:101150001361CDE73B6C042BC9D13A6801201368B9
:1011600043F400731360C3E73B685FFA89F21A61C6
:10117000BEE700BF0200010000287ED0F8B590F85D
:101180003D30044603F0FF02002B61D02423226887
:1011900084F83D30136823F00103136001F024FD4F
:1011A0006368374A934230D8364A90424ED95A0043
:1011B000431EB3FBF2F30133C3F30B03042B38BF1D
:1011C0000423314AA2FB00202268800C411C50609D
:1011D000116200214FF0200EE069E768266A256958
:1011E00006433D436069A769D36138431660956043
:1011F000D0601368084643F001031360216484F84B
:101200003DE0216384F83E10F8BD204A90421DD98C
:101210004FF496711C4D1E4AA5FB0065AD0C01FBF9
:1012200005F1A2FB0121A6682268890901315560F8
:10123000116296B9013803EB4303B0FBF3F30133BA
:10124000C3F30B03BBB143F40043C2E70120F8BD75
:1012500080F83C2005F0B8FC98E703EB830303EB30
:1012600083030138B0FBF3F30133C3F30B0313B172
:1012700043F44043ADE70123ABE70120704700BFD3
:10128000A08601007F841E0083DE1B43FF083D0013
:10129000D34D62102DE9F0470446002084B09846F3
:1012A0000E4617460290BDF83450FEF76FFF94F8D3
:1012B0003D30202B03D0022004B0BDE8F0873C4B2A
:1012C0003C4A1B688146DB08A2FB03231B0A03EB95
:1012D000830303EB8303029303E022689369990776
:1012E0000CD5029B5A1E0292002BF6D120222363BA
:1012F00084F83C3084F83D200320DDE794F83C304E
:10130000012BD8D00121136884F83C10DB0702D4EC
:1013100013680B4313604FF0210E40204FF0000A7A
:101320001368254923F4006313600C9B84F83DE0A7
:10133000636284F83E002585C4F840A06585E162BB
:101340000DB92846B8E7606BDFF874E01B492B46FF
:1013500010320163C0F82CA00C99C0F834A0C0F87A
:1013600028E0FFF7D1FB2320CDF8049000904346FE
:101370003A4631462046FFF7A5FE38B1236C84F883
:101380003CA0042B0CBF0120032095E723680390A9
:101390005A6903929A6984F83C000392039A5A6846
:1013A00042F480725A605A6842F400625A6083E7DD
:1013B0002001002089B5F8140000FFFFE1130008A8
:1013C0000D140008704700BF704700BF704700BF92
:1013D000704700BF704700BF704700BF704700BF35
:1013E00038B500212025436A1C681846226822F47B
:1013F00080622260598583F83D5083F83E101A6C54
:1014000042F010021A64FFF7E9FF38BD406A08B5E0
:1014100090F83D3090F83E20DBB2212B25D0222BD6
:1014200020D0002103681A6822F480621A601A68CA
:1014300042F400721A605A6822F480525A605A6864
:1014400022F400625A604185036CEBB9202280F8D7
:101450003D2090F83E2080F83E30402A11D0FFF722
:10146000B1FF08BDD2B2202ADBD1002103685A683F
:1014700022F400625A6041855A6842F440725A6010
:1014800008BDFFF7A9FF08BDFFF7A8FF08BD00BF13
:10149000704700BF38B590F83D300446293B012B1A
:1014A0004ED990F83D30602B036805D05A68150579
:1014B0005CBF202280F83D200022226384F83E2079
:1014C0001A6822F400621A605A6812F4006214D09A
:1014D000616B5A6891F8210022F4006201285A6079
:1014E00035D03A4B08464B63FFF752FB002860D1DA
:1014F00094F83D30282B13D038BD94F83D10602966
:1015000042D05A69520604D5626A1B69511C616255
:1015100013702046FFF762FF94F83D30282BEBD183
:10152000236C5B07E8D50023202229492046E1628D
:10153000236384F83D2084F83E30FFF74BFF38BD2D
:10154000002328220363036880F83D20B8E7A36BDB
:101550001E4A18465A63FFF71BFB0028C8D02368B1
:101560005A69500605D5626A1B69511C6162137085
:10157000236820211A68A06B22F001021A60436BD5
:1015800084F83D109847B3E7202184F83D10226489
:101590005A69510605D5626A1B69511C6162137054
:1015A00023681A68204622F001021A60FFF770FFD4
:1015B0009EE720252268606B1368416B23F00103CE
:1015C000136084F83D50884792E700BFA51D0008CE
:1015D0000000FFFFF0B5044603688DB09D695969AE
:1015E000586894F83E20D2B2102A00F08F80402A2A
:1015F00000F08C808E4A0A401AB3820500F1028204
:101600008C4A2A40002A00F0F9808B4A0A40002ABE
:1016100040F0B381894A0A40002A00F0D480860550
:1016200040F1D180628D92B2002A00F0CC80626AD3
:10163000511C616212781A61638D013B9BB2638514
:10164000C1E07F4F0F40002FDAD08605D8D594F83F
:101650003D1058681E4620F4E06058600B925A69AD
:10166000C9B20B921A6842F001021A600B9A1A680A
:1016700022F480621A605A6810050ED594F83D2055
:10168000222A00F04E8294F83D202A2A00F0498256
:10169000626B1268526892B26285628D92B2E2B158
:1016A0005A69520709D5626A1B69501C606213703F
:1016B000638D2668013B9BB2638573695B0608D521
:1016C000636A3269581C60621A70638D013B9BB279
:1016D0006385236C43F004032364236C002B40F0E8
:1016E0003382A1F12802022A40F2E681236B222BE9
:1016F00001D0222967D1002320222363204684F8C9
:101700003D2084F83E30FFF761FE5CE011F0011FE0
:1017100043D0860500F15F814A4A0A40002A54D02E
:10172000444A2A40002A44D0434A0A40002A00F092
:101730008D80470540F18A80404A0A40002A40F0E7
:10174000898094F83D20258D94F83E10D2B2C9B21C
:10175000E06A002D40F00282212A00F048824029F0
:1017600031D1222A2FD1628D92B2002A00F02D822F
:1017700094F83E20402A7FF45AAF226D002A40F0B0
:10178000B182E26C012AA26C00F0F982C2F3072256
:101790001A61236D0133236515E02A4A0A40A2B17C
:1017A0008205BDD5626CD2B21A61224A2A40002A53
:1017B000BAD1254A0A40002A78D1204A0A4012B1FB
:1017C000810500F139810DB0F0BD194A0A40002AA7
:1017D000A6D08705A4D594F83E20E76AD4F830E077
:1017E00094F83D60D2B2222E00F07E8100220A924F
:1017F0005A690A929A690A920A9A91E7124A0A4029
:10180000002A40F08B800D4A0A40002ADBD0820576
:10181000D9D5628D92B2002AD5D0626A1B69511C5B
:1018200061621370638D013B9BB26385CBE700BFA0
:10183000020001000400100080000100040001000B
:10184000100001000800010040000100A44A0A4005
:10185000002AB8D08605B6D5E16A94F83D20212A41
:10186000B1D1628D92B2002A7FF4E1AE042905D095
:10187000082903D011F5803F40F0AC8100212020E1
:101880005A6822F4E0625A601A6842F400721A60E0
:10189000216384F83D0094F83E302046402B84F8C4
:1018A0003E1000F0C18104F0E1FC8CE7450584D5D1
:1018B0008B4A0A40002A83D194F83D20222A82D103
:1018C000628D92B2032AA8D8023A012AE26A40F253
:1018D000718120250021022A1A68606A14BF22F44F
:1018E000806242F480621A605A6822F4E0625A60B0
:1018F0001B69421C62620370638D013B9BB263856E
:1019000084F83D50216394F83E302046402B84F803
:101910003E1000F04C81FFF755FD54E745057FF57B
:1019200072AF6F4A0A40002A7FF471AF94F83D10FD
:10193000628DC9B292B2002A3FF445AF626A1B6958
:10194000501C60621370638D013B9BB26385638D95
:101950009BB2002B7FF437AF2A297FF434AF2225C6
:10196000282122682046536823F48063536025634E
:1019700084F83D10FFF72AFD25E747057FF54AAEBD
:10198000574A0A40002A7FF44AAE94F83D10628D0F
:10199000C9B292B2002A3FF416AF626A501C60626C
:1019A00012781A61628D013A92B26285628D92B2AA
:1019B000002A7FF408AF29297FF405AF21252821CB
:1019C0005A68204622F480625A60256384F83D10EC
:1019D000FFF7FAFCF7E694F83E20402A64D022692B
:1019E000B2F5804F1CD0226D002A71D0226D012AE1
:1019F0007FF496AE626CD21102F0060242F0F10260
:101A00001A618DE699699B6981F004011F06C1F393
:101A1000800154BFA289228B2046FFF7D9FCD2E671
:101A200094F83D20212A626C16BF42F0010202F0B8
:101A3000FE02D2B21A6173E6E16A628D92B2032AA3
:101A400075D0628D92B2022A7FF4E7AE042900F0CD
:101A50008980082900F0868011F5803F00F082809F
:101A60001A68022914BF22F4806242F480621A606C
:101A70005A6822F440725A602020626A1B69551C21
:101A800065621370638D2268013B9BB26385636A54
:101A900012695D1C65621A70638D0021013B9BB267
:101AA000638584F83D002DE7226D002A50D1626CD9
:101AB00002F0FE021A6133E620220A492046E16262
:101AC000236384F83D2084F83E30FFF783FC7AE6F8
:101AD000626CD21102F0060242F0F0021A611FE6B7
:101AE000040001000000FFFF266D16B9402A00F037
:101AF000B980266D26B92269B2F5404F00F0B98051
:101B0000628D92B2002A36D102925A6902929A6983
:101B10000292029A1A6842F400721A600022226548
:101B2000FEE5A26B1268526892B26285B5E504299F
:101B300005D0082903D011F5803F7FF46EAE1A68F6
:101B400022F480621A6068E62046FFF7A3FC3AE6BA
:101B5000626C42F00102D2B21A61E1E5212A7FF4FF
:101B6000FEAD00E65A6822F440725A601A6842F4E8
:101B700000721A6080E7628D92B2012A57D0628D9E
:101B800092B2022A00F083801A6842F480621A60DE
:101B90005A68120503D55A6842F480525A600022EE
:101BA00009925A6909929A690992099AB6E7FFF768
:101BB00013FC08E6022A1A6800F0D28022F4806240
:101BC0001A601A6842F400621A605A6822F480624D
:101BD0005A60F8E5112620255968204621F4E06175
:101BE0005960266384F83E2084F83D505BE6042863
:101BF00005D0082803D010F5803F40F084800022F3
:101C00002020596821F4E0615960196841F400719D
:101C10001960226384F83D0094F83E302046402B42
:101C200084F83E207FF43FAE04F002FBCBE517F5CD
:101C3000803F77D0042F45D0082F43D0BEF1120F3C
:101C400040D0E26A022A1A6814BF22F4806242F489
:101C500080621A60002205925A6905929A6905927B
:101C6000059A5BE700965A6900929A690092009A79
:101C700056E501965A6901929A690192019A1A6889
:101C800042F480721A60226D0132226548E5E26AF0
:101C90000026022A1A6859D042F400621A60079698
:101CA0005A6907929A690792079A1A6822F4806221
:101CB0001A605A6816057FF531AF5A6842F48052AF
:101CC0005A602BE700261A6822F480621A60069692
:101CD0005A6906929A690692069A1A6842F4007244
:101CE0001A601BE7226D012A4FD0226D022A7FF471
:101CF0006AAD94F83D20222A4ED094F83D20212A46
:101D00007FF461AD93E4112620215A68204622F425
:101D1000E0625A60266384F83E5084F83D1004F077
:101D2000A5FA50E51A6822F480621A605A6812F423
:101D3000006219D000261A6822F480621A600396A5
:101D40005A6903929A690392039AE7E642F4806221
:101D50001A6008965A6908929A690892089AA8E740
:101D600042F480621A6030E704925A6904929A69D8
:101D70000492049A1A6842F400721A60CEE6D2B253
:101D80001A61236D023323651DE5A26CD2B21A617C
:101D9000236D0133236516E51A6842F480721A60D8
:101DA00011E500BF38B50023406A0268456B116831
:101DB000846B21F480611160438590F83D106B6362
:101DC00060294FF02001636380F83D1080F83E30B9
:101DD00006D0136823F001031360FFF7FFFA38BD44
:101DE0000364136823F001031360FFF751FB38BD50
:101DF000002867D0F0B590F8293487B0054603F085
:101E0000FF02002B59D003232E4685F82934286879
:101E100001F00EFC56F810EB6C4637460FCF0FC49E
:101E20003B682F1D236097E80E00704601F0EEFB23
:101E30000021286801F006FC00212B4608462A46AE
:101E4000012482F82810918601310F2982F8294057
:101E500082F82B009063D063106402F12002F0D16D
:101E60000022144683F828229A8601320F2A83F82A
:101E7000294283F82B42C3F83842C3F83C42C3F8E6
:101E8000404203F12003EDD1EE460FCED5F800C05D
:101E9000AEE80F0033686046CEF8003097E80E00D9
:101EA00001F0D2FB012385F82440286885F8293405
:101EB00001F0FAFF002007B0F0BD80F8282405F0FB
:101EC000E5F8A0E70120704790F82824012A01D105
:101ED00002207047012110B5044680F8281405F04F
:101EE00001FA206801F0DEFF206801F097FB002076
:101EF00084F8280410BD00BF90F82824012A01D1DD
:101F00000220704710B50446012284F8241080F89E
:101F10002824006801F0C0FF002084F8280410BDC8
:101F200038B54CB2002C054619DB00EB411000F52A
:101F30000A70E40F44700170C37095F82834026190
:101F4000012B01D1022038BD0123014685F8283438
:101F5000286801F093FB002085F8280438BD01F0C3
:101F60007F0100EB41102830E3E700BF4AB2002AAE
:101F700010B5044617DB00EB411303F50A73D20FCB
:101F80005A70197094F82824012A01D1022010BD3A
:101F90000122194684F82824206801F007FD00205A
:101FA00084F8280410BD01F07F0100EB41132833B1
:101FB000E5E700BF70B5002601F07F014D0144192F
:101FC00005F50A7584F82812C4F83C224119C4F8B2
:101FD00040320068C4F8446284F8296201F0C4FD0C
:101FE000304670BD01F00F0100EB4111B1F8440221
:101FF000704700BFF8B50026012701F07F014D01B1
:102000004419283584F82810E263411923640068D4
:1020100084F82970666401F0A7FD3046F8BD00BF62
:102020002DE9F04F044683B0006801F03FFF020441
:1020300044D4206801F03AFF460500F1F48120689D
:1020400001F034FF10F4804F206807D0B0F844301E
:1020500023F480431B041B0CA0F8443001F026FF3E
:1020600010F4005F206807D0B0F8443023F4005328
:102070001B041B0CA0F8443001F018FFC50400F14C
:10208000B481206801F012FF000500F18D81206805
:1020900001F00CFF820500F17A81206801F006FF53
:1020A000C30508D52268B2F8443023F480731B04BA
:1020B0001B0CA2F8443003B0BDE8F08F0023206869
:1020C000DFF89084DFF890A4DFF890B4ADF8043026
:1020D000ADF80630B0F844309BB21F04ADF80430C0
:1020E000A8D5BDF8045015F00F0552D1BDF8041065
:1020F000038811F010019BB200F09280ADF8063019
:10210000BDF806301B0500F12281BDF806301F0422
:10211000E0D540F68F73028813400380B0F850304A
:1021200094F828229BB203EBC20300EB4303D3F8DD
:102130000C34C3F30903C4F84432002B40F0F0819F
:102140000021204604F0C6FF2068D4F83812B0F809
:1021500050303E299BB200F5806503F1060340F242
:10216000B981C1F34F12CE0604BF02F1FF3292B221
:102170004BEA822292B245F8132003889BB203EA0D
:102180000A0383F4405343F4004343F08003038085
:10219000A0E730F825309BB2ADF80630BDF8063028
:1021A0001A0467D4BDF806301B0693D530F82530E5
:1021B0006E019BB203EA080320F82530A11991F8BB
:1021C0003230002B40F0A180B0F8503091F8282038
:1021D0009BB203EBC203023300F5806252F8133066
:1021E000C3F309034B64002B40F06C812644B0F824
:1021F000503096F828109BB203EBC103023352F81B
:102200001310F26BC1F30901336C0A447164F26379
:1022100096F8281020464BBB04F064FF206859E76D
:1022200003EA08030380B0F8503094F828209BB2EA
:1022300003EBC20300EB4300D0F80434E26BC3F3BA
:1022400009031A446364E263204604F04BFF94F8E8
:1022500024306BB1236C5BB994F82420206842F0E1
:102260008002A0F84C2084F8243033E7FFF7C2FE48
:1022700020682FE740F68F7330F825206E01134059
:1022800020F8253004EB060999F83232002B00F0D3
:10229000E88099F8283230F8231000EB830211F41B
:1022A000804FB0F8501089B201EBC30300EB430339
:1022B00000F01B81D3F80474C7F30907002F40F026
:1022C000458140F60F7311880B4043F4004343F0FF
:1022D000C0031380A119D1F84402D1F83C22D1F8EF
:1022E000403238443A44C1F84402C1F83C2223B198
:1022F000D1F83802874280F00C812644204696F8B7
:10230000281204F0E7FE20684CE791F8282004EB3F
:10231000451530F8223013F0400FB0F850309BB222
:1023200003EBC20300F0B580023300F5806252F87F
:102330001330C3F309036B64002B00F0B480CA8D23
:10234000C96B01F0B9FD206800F58062ABE0B0F820
:10235000503094F828229BB203EBC20300EB4303F6
:10236000D3F80C34B4F82C22C3F30903C4F8443274
:1023700004F22C4101F0B2FD40F68F732268204632
:1023800011880B40138004F09FFE2068A2E62268AB
:102390002046B2F8443023F400731B041B0CA2F84F
:1023A000443004F0A7FE78E62368B3F840201846CE
:1023B00092B242F00802A3F84020B3F8442022F47D
:1023C00000621204120CA3F84420B3F8402092B229
:1023D00042F00402A3F8402001F068FDC1043FF57B
:1023E00056AE204604F098FE51E622682046B2F828
:1023F000403023F004031B041B0CA2F84030B2F859
:10240000403023F008031B041B0CA2F8403004F0FA
:1024100093FE2068B0F8443023F480531B041B0C57
:10242000A0F844302EE622682046B2F8443023F467
:1024300080631B041B0CA2F8443004F05FFE94F888
:102440002834012B3FF4FBAD0025012384F82450F0
:1024500084F828342946206801F01EFD84F82854A9
:10246000EDE5B0F8503099F828229BB203EBC20397
:1024700000EB4303D3F80C74C7F30907002F3FF4B4
:1024800029AF3B46B9F82C22D9F83C1201F026FDC1
:1024900020E7063300F5806252F81330C3F30903D6
:1024A0006B64002B4AD140F60F73A11991F82810E4
:1024B00030F821502B4043F4404343F0800320F890
:1024C000213093E68A8DC96B01F0F6FC206800F597
:1024D00080628BE6C1F34F02C90744BF013292B25A
:1024E000920292B245F8132047E6D3F80C74C7F372
:1024F0000907002F3FF4E5AE3B46B9F83022D9F882
:102500003C1201F0EBFC99F82832226802EB8302BE
:10251000D7E691F828122046FFF74CFD206841E6E7
:10252000B4F82C22D4F83C1201F0D8FCD4F83C3298
:10253000D4F844221344C4F83C3201E60A8EC96B35
:1025400001F0BAFC206800F58062ACE73B46B9F8C0
:102550002E22D4E70F8FFFFF8FBFFFFF0080FFFF0A
:1025600038B54BB2002B0C46054618DB00EB411189
:1025700001F50A710122DB0F4B700C708A7095F81F
:102580002834934201D1022038BD85F828242868D8
:1025900001F0F8FB4CB1002085F8280438BD01F0AB
:1025A0007F0400EB44112831E4E705F22C41286850
:1025B00001F080FCEFE700BF4AB2002A38B50546BB
:1025C00019DB00EB411303F50A730024D20F5A7094
:1025D00019709C7095F82824012A01D1022038BD79
:1025E0000122194685F82824286801F005FC85F8A1
:1025F0002844204638BD01F07F0100EB4113283309
:10260000E3E700BF11F0800F0CD001F07F0100EB79
:102610004110283062B10122190CC38001818272FD
:102620000020704700EB411000F50A70002AF2D13B
:1026300082728380002070472DE9F041036882B0E8
:10264000DD07044630D5AD494A6802F00C02042A81
:1026500000F0FA804A6802F00C02082A00F0F080CC
:102660006368B3F5803F00F07481002B00F00481B3
:10267000B3F5A02F00F0A981A04B1A6822F4803294
:102680001A601A6822F480221A60FDF77FFD9B4DC4
:10269000064605E0FDF77AFD801B642800F21781ED
:1026A0002B689A03F6D523689F0728D5934A51686B
:1026B00011F00C0F00F0A980516801F00C010829FD
:1026C00000F09F802369002B00F0328101228C4BA7
:1026D0008A4D1A60FDF75AFD064605E0FDF756FDE6
:1026E000801B022800F2F3802B689807F6D52B6830
:1026F000626923F0F80343EAC2032B6023681A07D8
:102700005DD45D073AD57D4BDA69D00000F1A68033
:102710000125DA6942F08052DA61DB6903F0805307
:102720000093009B774B1A68D10540F1BF80E368A6
:10273000012B00F01481002B00F0CD80052B6F4B96
:102740001A6A00F04F8122F001021A621A6A22F01E
:1027500004021A62FDF71AFD684E804641F288377E
:1027600006E0FDF713FDA0EB0800B84200F2AF80D1
:10277000336A9B07F5D5002D40F0F780E369D3B1AC
:102780005E4D6A6802F00C02082A45D0022B4FF019
:1027900000025D4B00F0EF801A60FDF7F7FC2C465D
:1027A000054605E0FDF7F2FC401B022800F28F8091
:1027B00023689B01F6D4002002B0BDE8F081A36934
:1027C000002B2DD00122514B4C4D1A60FDF7DEFC41
:1027D000064604E0FDF7DAFC801B022877D86B6A16
:1027E0009B07F7D54A4B4B4A1B68A2FB03235B0AA6
:1027F000019300BF019B5A1E0192002BF9D123685F
:102800007FE75268D6033FF55DAF3C4A12689507F3
:1028100026D52269012A23D0012002B0BDE8F0812B
:102820003A4A364D1360FDF7B1FC064604E0FDF769
:10283000ADFC801B02284AD86B6A9F07F7D4DEE7FD
:102840004A68D0037FF50CAF2C4A126891037FF5DC
:102850002BAF6268002A7FF427AFDDE7002561E730
:10286000264960690A6822F0F80242EAC0020A605A
:102870001A077FF546AFA2E703F1804303F504335F
:102880001A681D4622F480321A601A6822F48022E7
:102890001A60FDF77BFC064604E0FDF777FC801B21
:1028A000642814D82B689B03F7D4FCE61A681E46EC
:1028B00042F480721A60FDF769FC07463368DA0556
:1028C0003FF535AFFDF762FCC01B6428F6D9032045
:1028D00002B0BDE8F08103F1804303F504331A6AC6
:1028E0001E4622F001021A621A6A41F2883822F06A
:1028F00004021A62FDF74AFC074612E0001002408B
:1029000000004242007000406000424280044242A7
:1029100020010020D34D6210FDF738FCC01B40455C
:10292000D5D8336A9807F7D4002D3FF427AF1CE0C1
:10293000344A354D1360FDF729FC064604E0FDF7E7
:1029400025FC801B0228C2D82B689907F7D423687E
:10295000D5E62D4A136843F48033136095E62A4A7E
:10296000136A43F001031362F4E6274AD36923F0A4
:102970008053D36102E71A60FDF708FC064604E0C5
:10298000FDF704FC801B0228A1D82B689901F7D41D
:10299000226AB2F5803F2DD001251B4B606A596831
:1029A000024321F4741119480A435A6005601C4619
:1029B000FDF7ECFB054604E0FDF7E8FB401B0228B1
:1029C00085D823689A01F7D5F5E603F18043A3F58E
:1029D0003C331A6842F480221A601A6842F480324A
:1029E0001A6052E642F004021A621A6A42F00102C8
:1029F0001A62AFE66B68A16823F400330B436B6087
:102A0000CAE700BF0000424200100240600042429C
:102A100070B50126022586B0154B0DF1180E0FCBAF
:102A20000EE90F00134C8DF804608DF805506368B3
:102A300003F00C02082A0BD1C3F383427244DB0378
:102A400012F8102C07D40C4800FB02F006B070BD41
:102A50000A4806B070BD63680848C3F3404300FBF2
:102A600002F0734413F8143CB0FBF3F006B070BDF1
:102A7000BC7C00080010024000093D0000127A00F2
:102A8000554A136803F007038B420BD2136823F0F7
:102A900007030B431360136803F00703994201D047
:102AA0000120704703682DE9F0419D0714D55C07AC
:102AB00004D54A4C626842F4E06262601A0704D5A9
:102AC000464C626842F460526260444C85686268B9
:102AD00022F0F0022A436260DF0706460C4622D548
:102AE00042683E4B012A1B6872D0022A6AD09907BD
:102AF00029D53A4D41F288386B6823F0030313431C
:102B00006B60FDF743FB73680746012B49D0022B2E
:102B100005D151E0FDF73AFBC01B404555D86B6825
:102B200013F00C0FF6D12C4A136803F007039C42F4
:102B30000CD2136823F0070323431360136803F0D8
:102B400007039C4202D00120BDE8F08133685A0798
:102B500006D52249F0684A6822F4E06202434A60DE
:102B60001B0707D51D4A3169536823F4605343EAB4
:102B7000C1035360FFF74CFF184B19495B68194AB2
:102B8000C3F30313CB5C20FA03F30020136004F0BB
:102B90008BF90020BDE8F081FDF7F8FAC01B404535
:102BA00013D86B6803F00C03042BF5D1BBE7FDF7DA
:102BB000EDFAC01B404508D86B6803F00C03082BE6
:102BC000F5D1B0E7980194D4BDE70320BDE8F081CA
:102BD0009D038ED4B7E700BF0020024000100240E2
:102BE000D884000820010020044B05495B68054A91
:102BF000C3F30223CB5C1068D8407047001002403A
:102C0000E884000820010020044B05495B68054A60
:102C1000C3F3C223CB5C1068D84070470010024059
:102C2000E8840008200100200F220D4B02605A6842
:102C300010B402F0030242605A680A4C02F0F0023B
:102C400082605A6802F4E062C2605B68DB0803F4E9
:102C5000E0630361236810BC03F007030B60704757
:102C600000100240002002402DE9F04104460068B7
:102C700082B0C30727D53B4BDA69D7003BD53A4B27
:102C800000251A68D60544D5364A136A13F44073F2
:102C90000FD0616801F4407083420BD001270026F9
:102CA000136A324923F440700F600E60D907106236
:102CB00046D461682B4A136A23F440730B431362B2
:102CC000002D38D1206883070DD410F0100007D0F4
:102CD0000020244AE168536823F480030B435360C7
:102CE00002B0BDE8F0811F4AA168536823F4404355
:102CF0000B435360E9E7DA69012542F08052DA615B
:102D0000DB6903F080530193019B174B1A68D605CA
:102D1000BAD41A681E4642F480721A60FDF736FA79
:102D200007463368D805AFD4FDF730FAC01B6428D6
:102D3000F7D90320D4E7D36923F08053D361C1E7E7
:102D40001646FDF723FA41F28837804605E0FDF785
:102D50001DFAA0EB0800B842EBD8336A9A07F6D503
:102D6000A7E700BF0010024000700040400442424C
:102D700000283AD0F8B5002390F851200446836229
:102D8000002A2ED01A46022700210125A668636872
:102D9000E06833432669034360693343E6690343CC
:102DA0003343206AA66984F851702768034306F408
:102DB0000070034338681343360C20F04002606A09
:102DC00006F004060643E06A3A603B607E603861C4
:102DD000FB69084623F40063FB61616584F8515088
:102DE000F8BD03F047FFA26ACDE70120704700BF9E
:102DF00003680020DA6842F00102DA601A6842F0E3
:102E000001021A60704700BF90F83C30012B40D09F
:102E10000222F0B40125036880F83D209A680C680E
:102E200022F47F4222F07702402C80F83C509A60D6
:102E300073D018D9702C60D02DD9B4F5805F57D0DD
:102E4000B4F5005F1CD18A684D68CC6899682A4344
:102E500042EA042221F47F410A439A609A6842F4CC
:102E600080429A600CE0102C32D038D9202C6CD0E3
:102E7000302C05D19A6822F0700242F037029A6035
:102E80000023F0BC012280F83C3080F83D20184639
:102E9000704702207047502C5ED0602CF0D11C6A25
:102EA0004D6824F01004CE681C6299691A6A21F4F6
:102EB000704122F0A00242EA051241EA063199610E
:102EC0001A629A6822F0700242F067029A60D7E7AD
:102ED0009A6822F0700242F017029A60D0E7002C44
:102EE000CED19A6822F0700242F007029A60C7E7DA
:102EF0009A6822F007029A60C2E78A684D68CC6837
:102F000099682A4342EA042221F47F410A439A60E5
:102F10009A6842F077029A60B2E71D6A1E6A4C68AE
:102F200026F00106CF681E629A6925F00A0122F098
:102F3000F00242EA071221439A6119629A6822F06C
:102F4000700242F047029A609AE79A6822F0700293
:102F500042F027029A6093E71D6A1E6A4C6826F0C9
:102F60000106CF681E629A6925F00A0122F0F0027C
:102F700042EA071221439A6119629A6822F07002AC
:102F800042F057029A607BE7704700BF704700BF6E
:102F9000704700BF704700BF036810B51A69044648
:102FA000910702D5DA68920762D41A69500702D5F0
:102FB000DA68510749D41A69120702D5DA6810078E
:102FC00031D41A69D20602D5DA68D00618D41A6943
:102FD000D10702D5DA68D2076BD41A69100602D578
:102FE000DA6811066DD41A69520602D5DA685006FD
:102FF00057D41A69910602D5DA68920649D410BDF1
:103000006FF0100108221961DB69204613F4407F3C
:10301000227761D1FFF7B8FF2046FFF7B9FF002202
:1030200023682277D3E76FF0080104221961DB6976
:1030300020469907227755D1FFF7A6FF2046FFF7D4
:10304000A7FF002223682277BBE76FF0040102226A
:1030500019619B69204613F4407F22773FD1FFF727
:1030600093FF2046FFF794FF002223682277A2E710
:103070006FF00201012219619B6902779B0728D139
:10308000FFF782FF2046FFF783FF002223682277A5
:103090008BE76FF020022046BDE810401A6100F077
:1030A000A5B86FF0400220461A61FFF773FF23684E
:1030B0009FE76FF0010220461A6103F023FB2368AB
:1030C0008BE76FF0800220461A6100F091F82368C8
:1030D00089E7FFF75BFFD8E7FFF758FF9FE7FFF7A8
:1030E00055FFC1E7FFF752FFABE700BF1D4A03687A
:1030F000904221D0B0F1804F30B414D0A2F5943278
:10310000904210D002F5806290420CD04D6923F0BD
:1031100080032B438C680A6803600123C4628262C7
:1031200030BC436170474A6823F070031343CA6898
:1031300023F440731343E9E74A6823F07003134311
:10314000CA6823F4407313434A6923F0800313438E
:1031500003608B68C3620B6883620B69036301239E
:1031600043617047002C0140B8B190F83D3010B574
:1031700003F0FF0204465BB10223206884F83D306F
:10318000211DFFF7B3FF0123002084F83D3010BD5F
:1031900080F83C2003F0F0FDEEE70120704700BF0F
:1031A00090F83C30012B1FD002460220F0B50025DC
:1031B0000126136882F83D005C68D1F800E024F035
:1031C00070045C6058684F6840EA0E0058609C6864
:1031D000284624F080049C6099683943996082F8FD
:1031E0003D6082F83C50F0BD02207047704700BF40
:1031F000704700BF2DE9F04782460468C168226924
:10320000836822F440520A432261E2680069DAF8D6
:10321000141022F4B052034322F00C020B43134368
:10322000E3606369DAF81810514A23F440730B43E2
:103230009442636159D0FFF7D7FCDAF8043000EB11
:10324000800000EB80009B00B0FBF3F3494F4FF090
:103250006408A7FB03235B091D01FFF7C5FCDAF82F
:10326000042000EB8000930000EB8000B0FBF3F63D
:10327000FFF7BAFCDAF8042000EB8000930000EBC3
:103280008000B0FBF3F3A7FB03235B0908FB136388
:103290001B013233A7FB03235B0903F0F006FFF7A2
:1032A000A3FCDAF8042000EB800000EB8000930020
:1032B000B0FBF3F9FFF798FCDAF8043000EB80007C
:1032C00000EB80009B00B0FBF3F3A7FB03235B093B
:1032D00008FB13931B013233A7FB0323C3F34313F0
:1032E00033432B44A360BDE8F087FFF78DFCDAF889
:1032F000043000EB800000EB80009B00B0FBF3F398
:103300001C4F4FF06408A7FB03235B091D01FFF767
:103310007BFCDAF8042000EB8000930000EB8000D7
:10332000B0FBF3F6FFF770FCDAF8042000EB800046
:10333000930000EB8000B0FBF3F3A7FB03235B09D2
:1033400008FB13631B013233A7FB03235B0903F064
:10335000F006FFF759FCDAF8042000EB8000930038
:1033600000EB8000B0FBF3F9FFF74EFCA4E700BFD1
:10337000003801401F85EB5160B338B590F8393003
:10338000044603F0FF0203B32423226884F8393093
:10339000D368204623F40053D360FFF72BFF0025AA
:1033A0002021236828461A6922F490421A615A693A
:1033B00022F02A025A61DA6842F40052DA60E563C8
:1033C00084F8391084F83A1038BD80F8382003F0BA
:1033D000F3FCD9E701207047704700BF704700BF7A
:1033E0008368B3F5805F2CD0036973B10368826A88
:1033F0005B68511C03F07F0381621370C38D013B36
:103400009BB2C38543B1002070470268836A52684B
:10341000591C81621A70F1E710B520240268D16846
:1034200021F02001D160D16821F48071D16051690F
:1034300021F00101516180F83A40FFF7CFFF0020F1
:1034400010BD0269836A3AB902685268C2F3080281
:1034500023F8022B8362D1E702685268D2B223F8C4
:10346000012B8362CAE700BF704700BF036870B5D5
:103470001A6804461607DD6859694AD011F001013F
:1034800053D0D60705D5E80503D5E06B40F0010021
:10349000E06356077BD5002900F08580E16B90073B
:1034A00041F00201E16377D5E16B41F00401E16392
:1034B000110773D4E16B00292AD0910605D5AA061D
:1034C00003D594F83A20222A7DD05D69E16B0E077E
:1034D00002D415F040057BD02021DA6822F49072E6
:1034E000DA605A6922F001025A6184F83A105A6986
:1034F00055065FD55A69616B22F040025A61002976
:1035000058D03C4B08464B63FDF742FB002855D191
:1035100070BD96060CD5A9060AD590F83A30222B34
:10352000F6D1BDE87040FFF75BBF15F4907FA8D1DE
:1035300010060ED45606EBD56D06E9D52021DA68C3
:10354000204622F04002DA6084F83910FFF744FF89
:1035500070BD2906EED594F83920212AD8D1A26869
:10356000B2F5805F226A38D0511C216212785A600D
:10357000E28C013A92B2E284002AC9D1DA6822F0E0
:103580008002DA60DA6842F04002DA6070BD9607C5
:103590000BD5002988D18DE711078BD5E16B41F060
:1035A0000801E16386E7900784D4100782D50029DB
:1035B00080D0F3E72046FFF757FF70BD606BBDE892
:1035C0007040436B18472046FFF70AFF23687CE7EB
:1035D0002046FFF749FFE56370BD11882069C1F3FC
:1035E0000801596010B902322262C1E70132226239
:1035F000BEE700BFF9350008002208B5436ADA8546
:103600001846DA84FFF730FF08BD00BF84B001A878
:1036100080E80E0004B00020704700BF0246B0F8FA
:10362000403000209BB243F43F43A2F84030704743
:1036300044F2FF230246B0F8401000200B40A2F8ED
:10364000403070470020704784B070B404460125B4
:103650000020A4F84050A4F84000A4F84400A4F8C6
:103660005000B4F8405004AEADB245F43F45A4F864
:10367000405086E80E0070BC04B07047CB7870B440
:10368000032B10D8DFE813F06701590104004B0148
:103690000A7830F8223023F4EC4323F070031B0443
:1036A0001B0C20F8223040F60F740A7830F82230D4
:1036B00042F40045234045F080052B4320F822309A
:1036C0008B7A002B34D14B78002B00F0E080B0F8DF
:1036D00050300D788A889BB203EBC503520800EB8B
:1036E00043035200C3F800240D7830F8253000EB76
:1036F00085025B060BD530F825301C4044F40044AD
:1037000044F0C00420F825400A7800EB82021388B8
:10371000002070BC23F4E04323F040031B041B0C87
:1037200083F0200343F4004343F080031380704789
:1037300040F60F630A7800F5806530F82260334068
:1037400043F4014343F0800320F82230B0F85020C6
:10375000CE880B7892B2760802EBC3027600B0F8FE
:10376000503045F812600A890E789BB20433520833
:1037700003EBC603520045F813204B78002B49D1C8
:103780000B7830F8235000EB83026D040BD530F832
:103790002320144044F4404444F0800420F82340A3
:1037A0000A7800EB820213885E060BD540F60F7391
:1037B0001488234043F4004343F0C00313800A7885
:1037C00000EB820240F60F7448F2800513881C401B
:1037D00044F4004444F0C00414800A7830F82230E5
:1037E00023F4804323F070031B041B0C83F4405329
:1037F0002B4320F822300A7830F8223023F4E043BB
:1038000023F040031B041B0C2B4320F8223070BC18
:10381000002070470B7830F8235000EB83026D04D2
:103820000BD530F82320144044F4404444F0800485
:1038300020F823400A7800EB820213885B0600F12F
:10384000988040F60F7448F2800513881C4044F4B9
:10385000404444F0800414800A7830F8223023F485
:10386000E04323F040031B041B0C2B4320F82230C1
:103870000A7830F8223023F4804323F070031B04CD
:103880001B0C2B4320F8223070BC00207047B0F88E
:1038900050208C880B7892B20432640802EBC30289
:1038A000640000F58065B0F8503045F812400A69B0
:1038B0000C789BB206333E2A03EBC40366D8C2F3EE
:1038C0004F04D20744BF0134A4B2A402A4B245F805
:1038D00013400C7830F8243000EB84025E040DD5E0
:1038E00040F60F7330F82420134043F4404343F074
:1038F000800320F824300A7800EB8202138800202D
:1039000070BC23F4804323F070031B041B0C83F46E
:10391000405343F4004343F08003138070470A7818
:1039200030F8223023F4EC4323F070031B041B0C0B
:1039300043F4C06320F82230B5E60A7830F822302C
:1039400023F4EC4323F070031B041B0C43F480634B
:1039500020F82230A7E60A7830F8223023F4EC432E
:1039600023F070031B041B0C43F4007320F8223077
:1039700099E640F60F731488234043F4004343F064
:10398000C00313800A7800EB82025AE7C2F34F1497
:10399000D60604BF04F1FF3294B2034A42EA8422FD
:1039A00092B245F8132094E70080FFFF8B7A30B481
:1039B0003BBB4B780C78002B00F0AE8030F8243005
:1039C00000EB84025B060DD540F60F7330F824201F
:1039D000134043F4004343F0C00320F824300A7836
:1039E00000EB8202138823F4E04323F040031B041E
:1039F0001B0C43F4004343F08003002030BC1380D1
:103A000070474B78002B49D10B7830F8234000EBFE
:103A1000830264040DD540F60F7230F82340224033
:103A200042F4404242F0800220F823200A7800EB62
:103A3000820213885D060BD540F60F73148823406D
:103A400043F4004343F0C00313800A7800EB820282
:103A500040F60F7448F2800513881C4044F400447B
:103A600044F0C00414800A7830F8223023F48043F4
:103A700023F070031B041B0C2B4320F822300A7820
:103A800030F8223023F4E04323F040031B041B0CE6
:103A90002B4320F8223030BC002070470B7830F8E0
:103AA000234000EB830264040DD540F60F7230F81A
:103AB0002340224042F4404242F0800220F823207A
:103AC0000A7800EB820213885B063FD440F60F743D
:103AD00048F2800513881C4044F4404444F08004BC
:103AE00014800A7830F8223023F4E04323F04003B6
:103AF0001B041B0C2B4320F822300A7830F82230AC
:103B000023F4804323F070031B041B0C2B4320F889
:103B1000223030BC0020704730F8243000EB8402A3
:103B20005D040DD540F60F7330F82420134043F4A4
:103B3000404343F0800320F824300A7800EB8202EF
:103B4000138823F4804323F0700350E740F60F738B
:103B50001488234043F4004343F0C00313800A78E1
:103B600000EB8202B2E700BFF0B54C788B69012C04
:103B70000A6960D0934230D800251A468B7A8D614D
:103B800083BBB0F850300C789BB206333E2A03EB6F
:103B9000C40300F5806540F28380C2F34F14D6065B
:103BA00004BF04F1FF3294B2754A42EA842292B211
:103BB00045F813200A7830F8223023F4804323F0AC
:103BC00070031B041B0C83F4405343F4004343F085
:103BD000800320F822300020F0BD9B1A8B618B7A85
:103BE000002BCED0002CE5D1B0F850300C789BB231
:103BF00002333E2A03EBC40300F5806540F2958052
:103C0000C2F34F16D70604BF06F1FF34A6B25C4CD0
:103C100044EA8624A4B245F813404B78002B40F0C8
:103C20009280B0F850300A789BB2063303EBC2039F
:103C300045F81340BEE793423DD800241A468B7ADC
:103C40008C61002B3CD196B28F88013600F5806ED6
:103C500076100EEB47074C6906D034F8025B27F864
:103C6000235001339E42F8D1B0F850300C789BB20B
:103C7000023303EBC4034EF813200A7830F82230E5
:103C800023F4E04323F040031B041B0C83F03003B8
:103C900043F4004343F0800320F822300020F0BDBD
:103CA000C2F34F04D20744BF0134A4B2A402A4B2A9
:103CB00045F813407EE79B1A8B618B7A002BC2D0AC
:103CC0000C7800F5806630F8243013F0400FB0F81F
:103CD00050309BB203F1020303EBC40312BF46F85A
:103CE0001320CC8846F8132092B218BF0C890132F9
:103CF000521006EB440618BF00234C6906D034F876
:103D0000025B26F8235001339342F8D14B783BBB3A
:103D100040F60F730A7830F82240234043F4004302
:103D200043F0C00320F82230A7E7C2F34F04D607C0
:103D300044BF0134A4B2A402A4B245F813404B78A6
:103D4000002B3FF46EAF012B7FF434AFB0F850304E
:103D50000C789BB2023303EBC40345F8132029E728
:103D6000012B8AD140F60F730A7830F822402340A5
:103D700043F4404343F0800320F822307DE700BF46
:103D80000080FFFF0A782AB34B788BB930F82230D5
:103D900023F4804323F070031B041B0C83F4805333
:103DA00043F4004343F0800320F8223000207047A2
:103DB00030F8223023F4E04323F040031B041B0CB3
:103DC00083F0100343F4004343F0800320F82230D3
:103DD00000207047038823F4804323F040031B0432
:103DE0001B0C83F4805383F0100343F4004343F02F
:103DF00080030380002070474B7810B42BB30C78FD
:103E000030F8243000EB84025B060DD540F60F73CA
:103E100030F82420134043F4004343F0C00320F85B
:103E200024300A7800EB82021388002023F4E04358
:103E300023F040031B041B0C83F0300343F40043C6
:103E400043F08003138010BC70470B7830F8234098
:103E500000EB830264040DD540F60F7230F8234066
:103E6000224042F4404242F0800220F823200A78A7
:103E700000EB82021388002023F4804323F07003B8
:103E80001B041B0C83F4405343F4004343F08003B2
:103E9000138010BC704700BF11B98023A0F84C30CC
:103EA000002070470020704700207047B0F84400A1
:103EB00080B2704700207047013300F580605B10CE
:103EC00000EB420209D030B4002431F8025B22F842
:103ED00024500134A342F8D130BC7047013300F5BF
:103EE00080605B1000EB420205D052F8040B013BEE
:103EF00021F8020BF9D17047D0F818321BB100201D
:103F0000C3F8140270470220704700BFD0F81C327B
:103F100010B5D0F818425BB194F80002FF2807D022
:103F20009B6894F8012221469847FF2384F80032C9
:103F3000002010BD43230380004870473C00002050
:103F40004323038000487047800000204323038000
:103F500000487047D00000200A23038000487047C3
:103F6000C400002038B50446D0F8185203F0AEF96A
:103F7000D4F81832C5F80C024BB1D4F81C3205F550
:103F80000371DB68D5F804029847002038BD022091
:103F900038BD00BFF8B50B780C4613F0600213D0A3
:103FA000202A0FD1CE88054626B31B06D0F81872FA
:103FB00013D44B78324687F8003287F801623946CD
:103FC00000F00CFC0020F8BD4B780A2BFAD101223E
:103FD0000C4900F0EDFB0020F8BDD0F81C32324651
:103FE00039469B6860789847E2883946284600F051
:103FF000DFFBE7E7D0F81C3232469B6848789847E9
:10400000E0E700BFE801002010B50446812103F07D
:10401000F9F80121204603F0F5F82046822103F04B
:10402000F1F8D4F8183253B1D4F81C325B689847D1
:10403000D4F8180203F054F90023C4F81832002011
:1040400010BD00BFF8B5037C044673BB4FF400738A
:104050000222812103F0C6F84FF4007302220121ED
:10406000204603F0BFF8082303228221204603F0F4
:10407000B9F84FF4077003F02FF90546C4F8180299
:1040800030B30026D4F81C321B689847277CD5F83B
:104090000422C5F814622046C5F818628FB1402387
:1040A000012103F005F93046F8BD402302228121A9
:1040B00003F098F8402302220121204603F092F8F1
:1040C000D1E74FF40073012103F0F2F83846F8BD50
:1040D0000120F8BD19B1C0F81C1200207047022061
:1040E000704700BFD0F818320020C3F80812C3F898
:1040F00010227047D0F818320020C3F8041270471D
:10410000D0F818228AB110B5047CD2F804222CB160
:104110004023012103F0CCF8002010BD4FF40073C0
:10412000012103F0C5F8204610BD0220704700BFF2
:1041300088B108B5D0F8143213B10023C0F8143296
:1041400009B1C0F810120123027080F8FC3102F0AE
:10415000F7FF002008BD0220704700BF19B1C0F86A
:104160001412002070470220704700BF08B503F00A
:104170002BF8002008BD00BF08B5D0F8143213B1E9
:104180001B68984708B1022008BD08BD08B5D0F8E3
:1041900014325B689847002008BD00BF38B504465C
:1041A00000F50275284600F0C9FA012094F80812BB
:1041B000B4F80E2201F01F038342C4F8F401C4F8DE
:1041C000F82115D00ED3022B06D001F08001204635
:1041D00003F026F8002038BD2946204600F046FAB4
:1041E000002038BD2946204600F0D4F8002038BD14
:1041F0002946204600F01CFA002038BD10B50446C0
:1042000031B91346D0F8F421032A0CD0002010BD98
:10421000D0F814329B69002BF8D090F8FC21032AC7
:10422000F4D19847F2E7D0F80C11D0F81021914260
:104230000CD8D0F814321B691BB190F8FC21032A6A
:104240000FD0204600F0E2FA002010BD891A8A4201
:1042500028BF0A46C0F80C1192B2194600F0CEFAF7
:10426000D4E79847EDE700BF70B5044651B913464F
:10427000D0F8F421022A15D094F80032012B0CD08A
:10428000002070BDD0F814325B69002BF8D090F894
:10429000FC21032AF4D19847F2E7002384F8003286
:1042A000002070BDC669026A964223D88369B3FBB9
:1042B000F2F502FB15358DB99A420FD8D0F8F821E6
:1042C00093420BD22A4600F081FAC4F8F8512B46EB
:1042D0002A462946204602F0EBFFCDE7D4F81432F7
:1042E000DB681BB194F8FC21032A0BD0204600F0B8
:1042F00099FAC1E7B21A0D46C261194692B200F0AE
:1043000065FAE4E720469847F0E700BF38B5002299
:104310004025044611462B4602F064FF2B4600223E
:10432000C4F810512046802102F05CFF0122D4F82D
:104330001832256284F8FC212BB1D4F8143221798B
:104340005B6820469847002038BD00BF01740020FC
:10435000704700BF0346042290F8FC11002083F848
:10436000FD1183F8FC217047034690F8FD210020E1
:1043700083F8FC21704700BF90F8FC21032A01D08C
:104380000020704708B5D0F81432DB6903B19847B4
:10439000002008BD30B54B7883B00D460446092B8C
:1043A0000BD8DFE803F035480A580A05650A7B1583
:1043B0008B8813B9CB88002B7DD08021204602F05A
:1043C0002FFF2046002102F02BFF002003B030BD5C
:1043D0008978964D01292970EFD890F8FC31022B8D
:1043E00000F08780032BE8D1002900F01481416898
:1043F000012909D0C9B2FFF7C9FE297820466160BA
:10440000FFF7BAFE0228D8D0204600F0FFF9DCE71B
:10441000012290F8FC310321023B9342CDD8D0F821
:104420000432C26003B1C160022204F10C012046D3
:1044300000F0BEF9C9E790F8FC31023B012BBCD873
:104440004B88012BC1D10022D0F81432C0F80422CD
:104450009B689847D8E74B88012BB6D1D0F8142237
:10446000C0F8043293689847204600F0CFF9ACE7D3
:104470004A88130A013B062B9FD801A151F823F06B
:10448000634500088545000873450008BB430008E4
:10449000BB4300084D4500080D450008CA88012AA5
:1044A0008BD190F8FC31022B1CD0032B85D1011D40
:1044B00000F07EF989E790F8FC318D78032B05F048
:1044C0007F053FF47AAF80F8FE51294602F0D4FE12
:1044D000204600F09BF9002D00F09080022384F824
:1044E000FC3172E70023014641F8083F00F060F913
:1044F0006BE7002988D001210323416080F8FC315B
:10450000FFF73AFE02287FF47FAF56E7037C002BCB
:104510007FF453AFD0F814320DF106001B6B9847AF
:1045200007234370BDF80630002B3FF44EAFEA88F6
:10453000002A3FF44AAF934228BF134601461A4669
:104540002046ADF8063000F033F93EE7037C002B3F
:104550007FF433AFD0F814320DF106005B6B98474F
:10456000E0E7D0F810320DF106011B68007C984797
:10457000D8E7D2B2052A3FF620AFDFE802F0271FC6
:10458000170F372F037C002B3CD1D0F814320DF1DC
:1045900006009B6A984702234370C3E7D0F81032A5
:1045A0000DF106011B69007C9847BBE7D0F810327B
:1045B0000DF10601DB68007C9847B3E7D0F81032B4
:1045C0000DF106019B68007C9847ABE7D0F81032EC
:1045D0000DF106015B68007C9847A3E7D0F8103224
:1045E0000DF106019B69007C98479BE7D0F81032DB
:1045F0000DF106015B69007C984793E7012384F87D
:10460000FC31E2E6D0F814320DF10600DB6A98477F
:104610000223437086E70223416080F8FC31FFF7F4
:10462000B5FD204600F0F2F8CFE600BFE90100201A
:1046300038B590F8FC310446032B03D10B790D46B5
:10464000012B08D9802102F0EBFD2046002102F069
:10465000E7FD002038BDD0F814329B689847EB88FE
:10466000002BF6D1204600F0D1F8F2E770B50B78B8
:104670008A8803F06003202B054657D04B780C4600
:10468000012BD6B234D019D3032B15D190F8FC31BD
:10469000022B31D0032B40D14B8823B9730602D0B3
:1046A000314602F0BDFDD5F8143221469B682846FC
:1046B0009847284600F0AAF8002070BD90F8FC3119
:1046C000022B19D0032B28D106F07F04130600EB30
:1046D000041431464CBF143404F5827402F0BCFD5E
:1046E00048BB206021462846022200F061F8E3E73B
:1046F00090F8FC31022B05D17206DDD0314602F074
:104700008FFDD9E7032B08D14B88002BD4D171063C
:10471000CFD0314602F092FDC5E7802102F080FD46
:104720002846002102F07CFD002070BDD0F8143234
:104730009B689847C0E701232360D3E70B78037099
:104740004B784370CA788B7803EB022343804A7915
:104750000B7903EB02238380CA798B7903EB022365
:10476000C380704700B3037830B4F3B1044600232C
:1047700014F8015F0133DBB2002DF9D15B00023385
:10478000DCB2032513800C704D7004785CB10223F9
:1047900000255A1CD2B2CC548D5410F8014F02336C
:1047A000DBB2002CF5D130BC704702242346E8E789
:1047B00038B5134602250A468361C361C0F8F45137
:1047C000002102F067FD002038BD00BF08B5134688
:1047D0000A46002102F05EFD002008BD38B51346F0
:1047E00003250A46C0F80831C0F80C31C0F8F4516E
:1047F000002102F05DFD002038BD00BF08B5134662
:104800000A46002102F054FD002008BD08B504222C
:104810000023C0F8F42119461A4602F03BFD00209F
:1048200008BD00BF08B505220023C0F8F4211946D1
:104830001A4602F03DFD002008BD00BF08B500F09B
:104840008BFE002008BD00BF30B5B0F9084002461D
:10485000842C08BF002485B018BF033403AD0B4679
:1048600040681168128A8DE8300000F08DFD012843
:1048700014BF0020039805B030BD00BF08B5002864
:1048800008BF012000F0E6FF002008BD1346A1F19B
:104890000102B2FA82F200B5006883B000905209BA
:1048A0000121034801F02AFB03B05DF804FB00BFBF
:1048B000488500084FF0FF31002200F108038160B5
:1048C00080E80C00C3600361704700BF00230361F0
:1048D000704700BF90E80C0010B49C6801328C60F7
:1048E0009C684B606160996010BC08610260704711
:1048F00030B40D686B1C11D000F1080200E01A46BC
:1049000053681C68A542FAD204684B600134996070
:104910008A6051600861046030BC70470269536866
:10492000F2E700BF02694368816810B49960546877
:104930008168A0424B6008BF51600021136801618B
:10494000581E106010BC70470A4B1B68013308D01A
:104950004FF0500383F31188BFF36F8FBFF34F8F76
:10496000FEE74FF0500383F31188BFF36F8FBFF35F
:104970004F8FFEE71401002006480068006880F3AE
:10498000088862B661B6BFF34F8FBFF36F8F00DF49
:1049900000BF000008ED00E010B44FF08074064B3B
:1049A00021F0010140F8202C00E9120040F80C3CF5
:1049B00010BC4038704700BF4949000800000000A3
:1049C000074B19680868B0E8F00F80F30988BFF357
:1049D0006F8F4FF0000080F311884EF00D0E70477E
:1049E000681900204FF0500383F31188BFF36F8FD5
:1049F000BFF34F8F0A4A13680133012B136000D0B5
:104A00007047084B1B6813F0FF0FF9D04FF05003AD
:104A100083F31188BFF36F8FBFF34F8FFEE700BFA3
:104A20001401002004ED00E0084A136843B94FF078
:104A3000500383F31188BFF36F8FBFF34F8FFEE7EF
:104A4000013B13600BB983F31188704714010020F8
:104A5000EFF30980BFF36F8F0D4B1A6820E9F00F59
:104A600010602DE908404FF0500080F3118800F0ED
:104A700017FF4FF0000080F31188BDE80840196867
:104A80000868B0E8F00F80F30988BFF36F8F7047B4
:104A90006819002008B54FF0500383F31188BFF365
:104AA0006F8FBFF34F8F00F0A5FD18B14FF080520C
:104AB000024B1A60002383F3118808BD04ED00E067
:104AC0000721064B064A1B680648A2FB0323064A39
:104AD0009B09013B03601160704700BF200100206B
:104AE000D34D621014E000E010E000E030B5FF2587
:104AF00007221F4B83B019781E4CC9B201911D705B
:104B00001B781D48DBB28DF803309DF803309DF80B
:104B1000031003F050030906026023700DD506222E
:104B200000E00A469DF80330511E5B00DBB28DF8B1
:104B300003309DF803301B06F3D4019912020C4C8C
:104B40000E4BC9B202F4E062026021701A6842F4AE
:104B500070021A601A6842F070421A60FFF7B0FFE4
:104B60000022074B1A60FFF707FFFFF7EDFE00BFBB
:104B700000E400E0EA010020EC01002020ED00E06C
:104B800014010020EFF305830F2B0ED91049114AB1
:104B90005B5C12789A4208D94FF0500383F3118876
:104BA000BFF36F8FBFF34F8FFEE70B4B0B4A1B68B2
:104BB000126803F4E063934208D94FF0500383F383
:104BC0001188BFF36F8FBFF34F8FFEE7704700BFB1
:104BD000F0E300E0EA0100200CED00E0EC01002031
:104BE00010B5044643071CBF20F00704083400F04A
:104BF000F3FC0E4A1368A3B141F267700C490B68CD
:104C00001C44844208D8A34206D212680C60D4180F
:104C100000F098FD204610BD002400F093FD2046D2
:104C200010BD044B23F007031360E5E7F0010020FB
:104C300064190020FC01002040B14FF0500383F3C1
:104C40001188BFF36F8FBFF34F8FFEE7704700BF30
:104C500070B50446006CA66B30B9256865BB60680A
:104C600000F08EFF656027E0154602466DB9A0682A
:104C700002F0D6FBA368216C62680B449342A360E8
:104C800017D323682846A36016E0E06802F0C8FB4B
:104C9000236CE2685B4221681A448A42E26002D2D5
:104CA00062681344E360022D03D126B1013E002067
:104CB00002E0002000E030460136A66370BD026CC1
:104CC00072B1034610B40846D9685C681144A14229
:104CD000D96024BF1968D960D96810BC02F0A0BBA4
:104CE0007047000070B50546FFF77CFE95F845401B
:104CF00064B2002C16DD6B6AA3B105F1240605E051
:104D0000013CE3B25CB26BB16B6A5BB1304600F060
:104D100039FE0028F4D0013C00F0CEFEE3B25CB2D4
:104D2000002BF1D1FF2385F84530FFF77DFEFFF71B
:104D300059FE95F8444064B2002C16DD2B69A3B1EE
:104D400005F1100605E0013CE3B25CB26BB12B69E2
:104D50005BB1304600F016FE0028F4D0013C00F0B4
:104D6000ABFEE3B25CB2002BF1D1FF2385F84430F7
:104D7000BDE87040FFF758BEE8B170B504460D4677
:104D80000026FFF72FFEFF20226CE36B216803FB58
:104D900002F39A1A0A440B44A663E26084F84400C2
:104DA0006360A16084F8450005BB236963B9FFF720
:104DB0003BFE012070BD4FF0500383F31188BFF319
:104DC0006F8FBFF34F8FFEE704F1100000F0DAFDA4
:104DD0000028ECD04FF080520A4B1A60BFF34F8F7F
:104DE000BFF36F8FFFF720FE012070BD04F11000AC
:104DF000FFF760FD04F12400FFF75CFDFFF714FEF0
:104E0000012070BD04ED00E040B94FF0500383F382
:104E10001188BFF36F8FBFF34F8FFEE770B5064663
:104E200001FB00F048300D46FFF7DAFE044638B1CA
:104E300045B92060E663256401212046FFF79CFF09
:104E4000204670BD00F148030360F3E72DE9F04709
:104E500084B00192002800F0A780002900F097801C
:104E6000022B00F0878004461F46894600F02AFE88
:104E700050B9019E4EB14FF0500383F31188BFF338
:104E80006F8FBFF34F8FFEE700264FF00008DFF86B
:104E900038A127E0FFF7C8FD00F09EFBFFF7A2FD59
:104EA00094F84430FF2B08BF84F8448094F84530D0
:104EB000FF2B08BF84F84580FFF7B6FD01A902A8C3
:104EC00000F0B6FD002878D1FFF78CFDA26BE36BF4
:104ED0009A4217D0FFF7A8FD2046FFF703FF00F026
:104EE00031FC0126FFF77EFDA26BE36B9A4226D3CD
:104EF000022F24D0019DE5B1002ECBD102A800F0F5
:104F000087FDC7E7FFF790FD019904F1100000F05D
:104F1000FFFC2046FFF7E6FE00F014FC0028E0D17D
:104F20004FF08053CAF80030BFF34F8FBFF36F8F3D
:104F3000D7E7FFF779FD284604B0BDE8F0873A4689
:104F400049462046FFF784FE636A63B938B14FF0E3
:104F500080521D4B1A60BFF34F8FBFF36F8FFFF767
:104F600063FD0120E8E704F1240000F00BFD0028B8
:104F7000EDD1F4E7C26B012A3FF475AF4FF0500357
:104F800083F31188BFF36F8FBFF34F8FFEE7026C7F
:104F9000002A3FF465AF4FF0500383F31188BFF34D
:104FA0006F8FBFF34F8FFEE74FF0500383F31188ED
:104FB000BFF36F8FBFF34F8FFEE72046FFF792FEE0
:104FC00000F0C0FB0020B7E704ED00E02DE9F84356
:104FD000F0B1002941D0022B33D004461F46904641
:104FE0008946FFF7CFFDEFF311864FF0500383F3AF
:104FF0001188BFF36F8FBFF34F8FA26BE36B9A42A1
:105000000FD3022F0DD0002086F31188BDE8F8835E
:105010004FF0500383F31188BFF36F8FBFF34F8FAF
:10502000FEE794F845503A4649466DB22046FFF7F0
:105030000FFE6B1C1DD06B1C5BB284F84530012049
:10504000E2E7C46B012CC8D04FF0500383F3118802
:10505000BFF36F8FBFF34F8FFEE7046C002CBAD005
:105060004FF0500383F31188BFF36F8FBFF34F8F5F
:10507000FEE7636A002BE2D004F1240000F082FC1A
:105080000028DCD0B8F1000FD9D00120C8F800000A
:10509000BAE700BF2DE9F04784B00192002800F084
:1050A0008D80002900F0BB8004469946884600F0B8
:1050B00009FD50B9019D4DB14FF0500383F31188A4
:1050C000BFF36F8FBFF34F8FFEE70025FFF78AFC1A
:1050D000A66B0027DFF860A1002E43D1019B002BB7
:1050E0007DD015B902A800F093FCFFF79DFC00F0FD
:1050F00073FAFFF777FC94F84430FF2B08BF84F86D
:10510000447094F84530FF2B08BF84F84570FFF7D2
:105110008BFC01A902A800F08BFC002841D1FFF70D
:1051200061FCA36B002B33D1FFF77EFC2368002BBF
:105130004DD0019904F1240000F0EAFB2046FFF76E
:10514000D1FD00F0FFFA38B94FF08053CAF80030B3
:10515000BFF34F8FBFF36F8F0125FFF743FCA66BA3
:10516000002EBBD041462046E568FFF7A8FDB9F107
:10517000000F3AD12368013EA66313B900F05CFD2D
:1051800060602369002B43D1FFF74EFC012029E02A
:10519000FFF74AFC2046FFF7A5FD012500F0D2FAF3
:1051A000DBE72046FFF79EFD00F0CCFAFFF71AFC84
:1051B000A36BA3B1FFF738FC0125CEE74FF05003F6
:1051C00083F31188BFF36F8FBFF34F8FFEE7FFF7B5
:1051D00009FC606800F086FCFFF726FCA9E7FFF7F2
:1051E00023FC002004B0BDE8F087636AE560002B73
:1051F000CAD004F1240000F0C5FB0028C4D04FF051
:1052000080520D4B1A60BFF34F8FBFF36F8FBBE718
:1052100004F1100000F0B6FB0028F0D1B4E7026CF6
:10522000002A3FF441AF4FF0500383F31188BFF3DE
:105230006F8FBFF34F8FFEE704ED00E0002330B423
:10524000074A52F8334002EBC30524B10133082B5F
:10525000F7D130BC7047686042F8331030BC7047FB
:10526000F420002070B504460D461646FFF7BAFB41
:1052700094F84430FF2B04BF002384F8443094F8A2
:105280004530FF2B04BF002384F84530FFF7CCFBEB
:10529000A36B2BB93246294604F1240000F052FBDF
:1052A0002046BDE87040FFF71DBD00BF4FF08050A5
:1052B0000549064A0B68012BFDD91060BFF34F8FDB
:1052C000BFF36F8FF6E700BF7419002004ED00E014
:1052D000034A044B1268D268D26852681A60704759
:1052E0006C190020401A0020F8B51B4B1B4D1E689E
:1052F0002B680446181D0F46FFF714FB40B9012226
:105300002B681749D86A0B68824023EA02030B60B6
:10531000631C18D034442B68A6425C600BD8114B38
:10532000186829680431FFF7E3FA0F4B1A689442B2
:1053300038BF1C60F8BD0D4B18682968BDE8F840FF
:105340000431FFF7D5BA002FE4D0296808480431AA
:10535000BDE8F840FFF7BEBA741A002068190020B3
:10536000101A00206C190020401A0020701900202B
:10537000601A00204FF0500383F31188BFF36F8F42
:10538000BFF34F8FFEE700BF2DE9F84F4FEA8208C9
:105390000646404689461F460B9DFFF721FC002824
:1053A00000F08C8082465420FFF71AFC0446002847
:1053B00000F09180A8F10408D04428F00708C0F854
:1053C00030A009F1FF3309F10F0100F133025878E1
:1053D00002F8010F13F8010F08B18B42F7D10A9BB5
:1053E0004FF0000B062B28BF0623994604F1040A50
:1053F000E3626364504684F843B0C4F848B0FFF7F2
:1054000065FA04F11800FFF761FAC9F10703C4F85F
:105410004CB0A361246184F850B064623A463146CE
:105420004046FFF7B9FA206005B12C60FFF7DAFAC1
:105430003C4A3D4E1368013313603368002B41D062
:105440003A4F3B6873B3E36ADFF800810125DFF868
:1054500000C105FA03F203EB8303DFF8F8E008EB81
:105460008300DCF8003051461A43DEF80030CCF8F7
:1054700000202B44CEF80030FFF72CFAFFF7D4FAC7
:105480003B68C3B13268E36AD26A9A4213D24FF0E2
:105490008052274B1A60BFF34F8FBFF36F8F2846A0
:1054A000BDE8F88F3268E36AD26ADFF8A0809A42DA
:1054B00098BF3460CAE72846BDE8F88F4FF0FF3048
:1054C000BDE8F88F34601368012B0BD0E36ADFF876
:1054D0007C80164FBAE75046FFF7AEFB4FF0FF3027
:1054E000BDE8F88FDFF86480454608F18C07284650
:1054F0001435FFF7DFF9AF42F9D10E4F0E4D3846A4
:10550000FFF7D8F92846FFF7D5F90C48FFF7D2F98D
:105510000B48FFF7CFF90B4B0B4A1F60E36A15608E
:10552000024F93E7001A0020681900205C1A00203F
:1055300004ED00E0141A0020281A0020481A002068
:10554000601A00206C1900207019002074190020C6
:10555000101A00200C1A002030B50024184A83B01D
:10556000019200942346802216491748FFF70CFF4A
:1055700001280CD0013001D003B030BD4FF05003F2
:1055800083F31188BFF36F8FBFF34F8FFEE700F0F7
:105590008DFC0128EED14FF0500383F31188BFF347
:1055A0006F8FBFF34F8F4FF0FF350849084A094B03
:1055B0000D6010601C6003B0BDE83040FFF796BA84
:1055C0003C1A00201C7D0008AD520008401A002043
:1055D0005C1A0020741A0020024A13680133136019
:1055E000704700BF081A0020014B1868704700BFC1
:1055F000741A00202DE9F84F474B1B68002B53D13C
:10560000464B1E6801361E60002E5AD0DFF82CB1C2
:10561000DBF800200024964260D3414D414FDFF873
:1056200020812EE02A68D268D2F80C90D9F80410B4
:1056300009F1040A8E4264D35046FFF773F9D9F892
:10564000281009F1180009B1FFF76CF90122364B57
:10565000D9F82C001B6802FA00FE4EEA030E00EB9C
:105660008000314B514607EB8000C3F800E0FFF7A4
:1056700031F9D8F80000D9F82C10C26A914228BF3D
:1056800001242A681268002ACCD14FF0FF32CBF8EF
:105690000020D8F80030DB6A03EB830357F823308F
:1056A000022B28BF012404E00024204A13680133A0
:1056B00013601F4B1B68002B18BF01242046BDE858
:1056C000F88F174D2B681B6863B14FF0500383F3BD
:1056D0001188BFF36F8FBFF34F8FFEE7114FDFF8D5
:1056E0006080D6E7134B29681868134A2860196050
:1056F0001368013313602B681B682BB1FFF7E8FDBB
:1057000084E7CBF80010C4E74FF0FF32DFF82CB08D
:10571000CBF800207CE700BF081A0020741A002094
:105720006C19002074190020101A0020041A00209F
:10573000781A002070190020441A0020401A002016
:10574000681900202DE9F84F374C236843B94FF012
:10575000500383F31188BFF36F8FBFF34F8FFEE7C2
:10576000FFF740F92368013B23602468002C51D1E6
:105770002E4B1B68002B4DD02D4DDFF8CCA02D4EAD
:10578000DFF8C890DFF8C8B020E00127DAF80C3065
:10579000DC6804F1040804F11800FFF7C3F8404680
:1057A000FFF7C0F8E06A326807FA00F300EB800008
:1057B0001343414609EB80003360FFF78BF8DBF8B9
:1057C0000030E26ADB6A9A4228BF2F60DAF80030C4
:1057D000002BDAD13CB1184B1B681B6803BB4FF0A0
:1057E000FF32164B1A60164E34683CB10127FFF7A2
:1057F00001FF00B12F60013CF9D134602B684BB13F
:105800004FF080520F4B1A60BFF34F8FBFF36F8F73
:10581000012400E00024FFF707F92046BDE8F88FD7
:10582000FFF756FDDFE700BF081A0020001A00202E
:10583000781A0020101A00206C190020401A00204D
:10584000041A002004ED00E0481A0020741900201A
:105850006819002008B558B10F4B196889B14FF08D
:10586000500383F31188BFF36F8FBFF34F8FFEE7B1
:105870004FF08052094B1A60BFF34F8FBFF36F8F09
:1058800008BD1A6801321A60FFF72EFDFFF75AFFB4
:105890000028EDD008BD00BF081A002004ED00E08C
:1058A000164B1B6833BB1649164A0B601368B3FAD4
:1058B00083F3DBB2C3F11F03134903EB83039B00A4
:1058C000CA58C81842B94FF0500383F31188BFF388
:1058D0006F8FBFF34F8FFEE74268083352680B4467
:1058E0009A42426008BF5268084B08BF4260D268C3
:1058F0001A6070470122024B1A607047081A002094
:10590000781A0020101A002074190020681900204D
:1059100060B110B50C460A4B19681831FEF7E8FF64
:105920002046BDE810400121FFF7DEBC4FF05003D8
:1059300083F31188BFF36F8FBFF34F8FFEE700BF74
:105940006819002038B588B114460D460C4B19680B
:105950001831FEF7BFFF002C08BF28462146BDE8DE
:10596000384018BF4FF0FF30FFF7BEBC4FF0500378
:1059700083F31188BFF36F8FBFF34F8FFEE700BF34
:1059800068190020F8B5C368DC682CB304F1180569
:105990002846FEF7C7FF184B1B6843BB261D304641
:1059A000FEF7C0FF0123154DE26A2F6814489340AB
:1059B00002EB82023B43314600EB82002B60FEF794
:1059C00089FF104BE26A1B68DB6A9A420DD90123FA
:1059D0000D4A18461360F8BD4FF0500383F3118849
:1059E000BFF36F8FBFF34F8FFEE70020F8BD29464E
:1059F0000648FEF76FFFE4E7081A0020101A00209F
:105A00007419002068190020781A0020481A002014
:105A100008B530B1044A054B12681B6880E80C00D9
:105A200008BDFFF7A7FC00BF441A0020741A00202D
:105A3000F8B570B321B30D460446FEF7D3FF2B68CB
:105A40001B485A1C01682DD01A4E276832689742AD
:105A5000626806D0914204D30125FEF7E5FF28468F
:105A6000F8BD8F1ABB42F7D95B1A13442B6000258F
:105A70003668016826606160FEF7D6FF2846F8BDEB
:105A80004FF0500383F31188BFF36F8FBFF34F8F35
:105A9000FEE74FF0500383F31188BFF36F8FBFF31E
:105AA0004F8FFEE70025FEF7BFFF2846F8BD00BF79
:105AB000741A0020441A00200122014B1A6070471A
:105AC000781A0020054B1B6833B1054B1B68002B6F
:105AD0000CBF022000207047012070475C1A002094
